:020000040800F2
:1000000088070020C9000008F50B00089D080008BB
:1000100000000000000000000000000000000000E0
:100020000000000000000000000000007F11000838
:100030000000000000000000E10C000801130008AF
:10004000F900000800000000F9000008F9000008AD
:10005000F90000088D060008F9000008AD06000848
:1000600000000000F9000008F9000008F90000088D
:10007000F9000008F9000008F9000008000000007D
:10008000851300080000000000000000F9000008CF
:10009000F9000008F9000008F9000008F90000085C
:1000A000F9000008F9000008F90000080D15000823
:1000B000F90000080348854600F06EF80048004744
:1000C00011170008880700200C4880F308880C48A6
:1000D0000168090E0B4A914205D10B480B4901609A
:1000E0000B480C4901600C4880470C480047FEE76C
:1000F000FEE7FEE7FEE7FEE7FEE7000088070020D8
:10010000040000001F000000181002400100000061
:10011000000001400000000009130008B5000008BD
:1001200030B50B46014600202022012409E00D468F
:10013000D5409D4205D31D469540491B2546954017
:1001400040191546521E002DF1DC30BD70B500245B
:100150002546002801DA01244042002901DA012560
:100160004942FFF7DDFFAC4200D04042002C00D0F6
:10017000494270BD03460B439B0703D009E008C901
:10018000121F08C0042AFAD203E00B780370401C47
:10019000491C521EF9D27047064C0125064E05E057
:1001A000E36807CC2B430C3C98471034B442F7D398
:1001B000FFF784FF344000085440000810B50121C7
:1001C000C9030920C00600F05BFB10BD00B585B077
:1001D0000121480400F0ACFD0121084600F0C8FDF3
:1001E0000021684601740221C1740021817401203C
:1001F000039003A90920C00600F0D8FAFF200130BF
:10020000039003A90920C00600F0D0FA0021084697
:1002100000F0B6FF0821002000F0B2FF012001909D
:100220000021684601720C2141720121817201A8EE
:1002300000F078FAFF200130019000216846017239
:10024000082141720121817201A800F06BFA01209E
:1002500000F054FAFF20013000F050FA0521684602
:100260000170032141700121817000F0C5FC07215C
:1002700068460170032141700121817000F0BCFCCF
:1002800005B000BD70B505460C462146284600F075
:1002900009F80446022000F073FE312000F070FEE1
:1002A000204670BDF8B506460F46002501214903DA
:1002B000674800F0F1FA0121C903654800F0EAFA45
:1002C0000120000362498861322401E0601E84B28B
:1002D000012CFBDC012000035D4920310881322420
:1002E00001E0601E84B2012CFBDC012000035849B0
:1002F0008861FF24F53401E0601E84B2012CFBDC30
:1003000001200003524920310881524D00BF0121D4
:1003100089034F4800F0B4FA002803D0681E80B269
:10032000051EF4D1002D7DD0302000F003F9494D99
:1003300000BF01218903464800F0A2FA002803D03B
:10034000681E80B2051EF4D1012000034049886177
:10035000002D7BD0302000F035FE802876D10121A1
:10036000002000F051FE0621022000F04DFE0E217B
:10037000032000F049FE0421072000F045FE45213E
:10038000082000F041FEFF21062000F03DFE32482B
:10039000815D0A2000F038FE06210B2000F034FEBB
:1003A0005C210D2000F030FE50210E2000F02CFECC
:1003B000D1210F2000F028FE7B21102000F024FE28
:1003C0008321112000F020FE1321122000F01CFEDA
:1003D0002321132000F018FE4421152000F014FE04
:1003E0003321172000F010FE1821084600F00CFE03
:1003F0001621192000F008FE43211B2000F004FE06
:10040000E3211E2000F000FE80211F2000F0FCFDF3
:100410000021252000F0F8FD1121262000F0F4FD38
:10042000812100E012E02C2000F0EEFD35212D208E
:1004300000F0EAFDFF213E2000F0E6FDFF20074925
:100440000870384600F0B8F80120F8BD0020FCE73D
:1004500000040048FFFF0000A41800088E000020E0
:1004600000B587B00121880400F062FC01218803F7
:1004700000F06EFC012040030590022168460176E1
:1004800001214176002181760121C17605A9274805
:1004900000F08CF901208003059005A9234800F0A5
:1004A00085F90120C003059005A9204800F07EF9D8
:1004B000012000030590012168460176C17605A957
:1004C0001A4800F073F900220D21184800F0B6F91F
:1004D00000220E21154800F0B1F900220F21134827
:1004E00000F0ACF9002168460180FF210531418010
:1004F0000721090281800221C18001210181490275
:100500004181102181810021C18107210182694639
:10051000074800F0F3FD01210903054800F020FE23
:100520000121034800F0D2FD07B000BD00040048DF
:100530000038004070B50446002500BF02210E4877
:1005400000F0D2FD0128F9D121460B4800F012FE3F
:1005500000BF0121084800F0C7FD0128F9D1064875
:1005600000F0F8FD054600BF8021034800F0BCFD07
:100570000028F9D1284670BD0038004070B5044607
:100580000025362000F088FD0A2500BF352000F048
:1005900019FD012803D0681E80B2051EF6D120780F
:1005A000401CC2B221463F2000F04EFD352000F035
:1005B00073FD207870BD000070B50446002536201C
:1005C00000F06AFD0A2500BF352000F0FBFC012881
:1005D00003D0681EC0B2051EF6D1002C04D0012C39
:1005E00027D0022C40D13BE00121002000F00CFD7F
:1005F0000721162000F008FD1821084600F004FD30
:10060000F821202000F000FD3B2000F045FD3A20BD
:1006100000F042FD342000F03FFD8D2500BF352065
:1006200000F0D0FC0D2803D0681EC0B2051EF6D124
:100630001AE00621002000F0E7FC0021162000F05F
:10064000E3FC3821182000F0DFFC7821202000F0A6
:10065000DBFC3C2000F020FD382000F01DFD03E015
:10066000392000F019FD00BF00BF0148047070BDC3
:100670008E00002001B504490098086000BF0248C0
:1006800000680028FBD108BD0000002010B5012043
:1006900000F03AF8002805D0002003490870012036
:1006A00000F02CF810BD00007400002010B50120EF
:1006B000C00300F029F800280BD0FFF77FFD0028C9
:1006C00002D101200B4908700120C00300F016F888
:1006D0000EE0FF20013000F017F8012805D1054990
:1006E0000870000200F00AF802E00348446944611F
:1006F00010BD000074000020000401400149486161
:10070000704700000004014001460020044A52697D
:100710000A40002A01D0012000E0002070470000BC
:1007200000040140002120498279002A35D00A4680
:10073000126803689A430B461A600A4652680368B7
:100740009A430B465A60027951180A6803681A43A3
:100750000A60154A926803689A43134B9A601A46D6
:10076000D26803689A43104BDA604279102A0CD1A0
:100770001A46926803681A430B4B9A601A46D2686D
:1007800003681A43084BDA600DE0074942795118B3
:100790000A6803681A430A6005E0027951180A687A
:1007A00003689A430A60704700040140F0B50A46A6
:1007B00000210023002400BF3DE001258D402B4691
:1007C00015681D402C469C4234D11579012D02D06C
:1007D0001579022D16D185684F000326BE40B5431A
:1007E000856055794E00B5408668354385608588BB
:1007F00001268E40B5438580858896798E40B6B2B5
:100800003543858005684F000326BE40B54305602B
:1008100015794E00B540066835430560C5684F0040
:100820000326BE40B543C560D5794E00B540C668C5
:100830003543C560491C1029BFD3F0BDF0B5002376
:1008400000244D07EE0E1546B5402B46CD10AE00E8
:1008500005462035AD594E07F70E0F26BE40B5436D
:10086000CE10B60007462037BD51CD10AE003D4634
:10087000AD591D432C46CD10AD003E467451F0BD20
:1008800002460020138A0B40002B01D0012000E01B
:1008900000207047018570478161704700BFFEE707
:1008A000F8B556480078002876D1002445E0544831
:1008B0000088C000534940180721091B465C504876
:1008C0000088C000504940180721091B475C0025DB
:1008D0002FE004204D49088140204D490881F00750
:1008E000C00F002805D008210920C006FFF7D2FF5D
:1008F00004E008210920C006FFF7CEFFF807C00F6B
:10090000002805D0802142482038FFF7C3FF04E0CB
:1009100080213F482038FFF7BFFF04200921C90686
:10092000886140203A492039886176107F10681C20
:10093000C5B2082DCDDB601CC4B2082CB7DB022089
:100940000921C906886120203149203988612C4855
:100950000078C007C00F002802D00120886102E0A3
:1009600001202B49088126480088022108400028E0
:1009700004D0022026492039886102E0022024495F
:1009800008811F48008804210840002805D0042061
:100990001F492039886103E02FE004201C490881A9
:1009A0001748008808210840002804D0082018496A
:1009B0002039886102E00820154908811048008824
:1009C00010210840002804D01020114920398861E6
:1009D00002E010200E49088109480088401C08499F
:1009E0000880084600881F2801DD002008800220BA
:1009F00006490881202006490881F8BD7A000020B8
:100A00008A00002088020020880100202000004881
:100A1000200400481CB50121880400F089F91F203A
:100A20000090012168460171002181710121C1718D
:100A30000321417169460448FFF7B8FE1F210248AF
:100A4000FFF728FF1CBD000000040048F0B5034676
:100A500014462546203D2D052A0C002B30D1CE17FB
:100A6000760F7618F610002E17D0102012E0151809
:100A7000103D484E755DC600474FF6190F46083FBA
:100A8000F5550025C600454FF6190F46083FF555A8
:100A9000451CE8B22028EADB7AE000200DE01518BA
:100AA0003C4E755DC6003C4FF61975540025C600D6
:100AB0003A4FF6197554451CE8B21028EFDB67E091
:100AC000012B30D1CE17760F7618F610002E17D0E6
:100AD000102012E00025C6002F4FF6190F46083FE0
:100AE000F5551518103D2B4E755DC6002B4FF619A8
:100AF0000F46083FF555451CE8B22028EADB47E0E1
:100B000000200DE00025C600234FF6197554151876
:100B1000204E755DC600214FF6197554451CE8B28C
:100B20001028EFDB34E0CE17760F7618F610002E83
:100B30001AD0102015E01518103D164E755DC60030
:100B4000154FF6190F46083FF5551518103D114E73
:100B5000755DC600114FF6190F46083FF555451C47
:100B6000E8B22028E7DB13E000200FE01518094E5B
:100B7000755DC600084FF61975541518054E755D5C
:100B8000C600064FF6197554451CE8B21028EDDB77
:100B9000F0BD0000C4180008880200208801002071
:100BA0001CB50121480400F0C3F80121880400F0BD
:100BB000BFF80E200090012168460171002181716B
:100BC0000121C171417169460920C006FFF7EEFDA0
:100BD000E020009069460548FFF7E8FD022004493F
:100BE000088120200149203108811CBD00040048F3
:100BF000200000487047000000218278002A27D09A
:100C0000184A03231B02D21803789B109B00D1586B
:100C100002789207D30EFF229A400B46934319465F
:100C200042789207120E03789B07DB0E9A4011431D
:100C30000C4A03231B02D21803789B109B00D1504F
:100C40000278D306DB0E01229A40064B1A6007E0B9
:100C50000278D306DB0E01229A40024B80331A60E1
:100C60007047000000E100E010B5002819DA1A4AC8
:100C700003071B0F083B9B089B00D2588307DC0E21
:100C8000FF23A3409A438B071B0E8407E40EA34067
:100C90001A43114B0407240F083CA408A4001A515E
:100CA00018E00E4A03231B02D21883089B00D25877
:100CB0008307DC0EFF23A3409A438B071B0E840798
:100CC000E40EA3401A43054B032424021B19840895
:100CD000A4001A5110BD00001CED00E000E100E08E
:100CE00070470000FFB581B005460E4617460B9CC5
:100CF0003F20207053206070A0700C480078E07096
:100D00000A4800880012207165712812A071E671EE
:100D10003012207267720498A072362220460B307F
:100D20000A99FFF727FA402005B0F0BD8C0000209B
:100D3000002905D0054A52690243044B5A6104E078
:100D4000024A52698243014B5A61704700100240C7
:100D5000002905D0054AD2690243044BDA6104E058
:100D6000024AD2698243014BDA61704700100240A7
:100D7000002905D0054A92690243044B9A6104E0B8
:100D8000024A92698243014B9A6170470010024007
:100D9000FEB5044600250026002002900190009038
:100DA0000027704840680C2108400546002D06D0F9
:100DB000042D07D0082D08D00C2D2CD128E06A482E
:100DC00020602BE06848206028E0664840680F21DA
:100DD000890408400646634840680321C903084067
:100DE0000290B00C861C0298002803D15F48374659
:100DF00047430BE05B48C06A0007000F401C0190AE
:100E000059480199FFF78CF970430746276005E0C0
:100E10005748206002E05448206000BF00BF51489E
:100E20004068F021084005462D095248405D009079
:100E300021680098C14061604A4840680721090262
:100E4000084005462D0A4B48405D009061680098B7
:100E5000C140A1604348006BFF2101310840884236
:100E600002D04548E0600DE03E484068012189031A
:100E70000840884203D0A0684008E06002E0A06813
:100E80008008E0603748006B40210840402802D0CD
:100E90003A48206102E00120C00320613148006B24
:100EA00010210840102802D02F48606101E020681E
:100EB00060612C48006B8007800F002802D1A06879
:100EC000A06119E02748006B8007800F012802D13C
:100ED0002068A06110E02348006B8007800F022883
:100EE00002D18003A06107E01E48006B8007800FDD
:100EF000032801D11C48A0611A48006B0321090492
:100F00000840002802D1A068E06120E01548006B8D
:100F100003210904084001210904884202D1206804
:100F2000E06114E00F48006B03210904084001212F
:100F30004904884202D18010E06108E00948006B52
:100F4000032109040840884201D10748E0610548AF
:100F5000006B80210840802802D00548206200E014
:100F60002762FEBD0010024000127A0000093D0019
:100F7000006CDC028F000020809FD50012800000F2
:100F800070B504460025012000030D49088100BF0B
:100F9000012189030A482038FFF772FC0028F7D1A5
:100FA000802121430846FFF7C5FA0020FFF7C2FA67
:100FB000054601200003024920398861284670BD9A
:100FC0002004004870B504460025012000030D49A7
:100FD000088100BF012189030A482038FFF750FC2F
:100FE0000028F7D1C02121430846FFF7A3FA0020CB
:100FF000FFF7A0FA05460120000302492039886165
:10100000284670BD2004004870B505460C460120F6
:1010100000030C49088100BF0121890309482038D9
:10102000FFF72EFC0028F7D12846FFF783FA204669
:10103000FFF780FA04460120000302492039886145
:10104000204670BD2004004870B505460C46164683
:10105000012000030F49088100BF012189030D48C9
:101060002038FFF70DFC0028F7D14021294308461E
:10107000FFF760FA03E02078641CFFF75BFA304664
:10108000711ECEB20028F6D101200003014920399B
:10109000886170BD2004004810B50446012000039B
:1010A0000949088100BF0121890307482038FFF75B
:1010B000E7FB0028F7D12046FFF73CFA01200003A8
:1010C00001492039886110BD20040048002904D05E
:1010D000028840231A43028003E00288014B1A4031
:1010E00002807047BFFF00000246002013890B40BA
:1010F000002B01D0012000E00020704710B5002235
:101100000288C1239B011A400B88CC892343CC88D9
:1011100023430C8923434C8923438C8923431A435B
:1011200002808288084B1A408B881A4382800B8A7F
:1011300003820288054B1A404B881A430280838B36
:10114000034C2340838310BDFFF00000FBFF000031
:10115000FFF70000014600220A460C321078704763
:101160008288034B1A40828082880A4382807047BB
:10117000FFEF0000002202460C32117070477047EA
:1011800030B500228B071C0F0F23A3401A460B4BD0
:101190008C10A4001B599343084C8D10AD00635173
:1011A00023468C10A4001B598C07250F0446AC4025
:1011B0002343024C8D10AD00635130BD0800014047
:1011C00070B504460B462948007800284BD1012011
:1011D000264D2870002C15D1002110E000220AE0D5
:1011E000C800234D401983540020CD00214EAD1975
:1011F000A854501CC2B2082AF2DB481CC1B22029F4
:10120000ECDB2BE0012C15D1002110E000220AE0DC
:101210000020CD00164EAD19A854C800154D401938
:101220008354501CC2B2082AF2DB481CC1B22029E8
:10123000ECDB13E000210FE0002209E0C8000C4DB8
:1012400040198354C8000B4D40198354501CC2B23E
:10125000082AF3DB481CC1B22029EDDB0020034D36
:101260002870012070BD0020FCE700007A000020FB
:1012700088020020880100200CB500200190009019
:1012800011201D4908601D4840681C4948600846F7
:1012900040684860084640687B21C9038843174975
:1012A0004860084640680521C9040843134948605E
:1012B000084600680121090608431049086000BF7C
:1012C0000E4800680121490608400028F8D00B4864
:1012D000406880088000094948600846406802214B
:1012E00008430649486000BF044840680C21084094
:1012F0000828F9D10CBD0000002002400010024077
:1013000010B500F0F7F810BD10B51B4800680121BA
:1013100008431949086008464068184908401649BA
:1013200048600846006816490840134908600846A6
:1013300000680121890488430F4908600846406815
:101340003F21090488430C4948600846C06A0009E7
:101350000001C8620846006BFF21543188430649EA
:1013600008630846406B40084000486300208860DE
:10137000FFF782FF10BD0000001002400CB8FF080C
:10138000FFFFF6FE10B50121054800F055F80028D2
:1013900005D00121024800F005F8FFF781FA10BDE1
:1013A00000040040CA43028270470000002904D0B4
:1013B000028801231A43028003E00288014B1A408D
:1013C00002807047FEFF00007FB504460D460121F4
:1013D0000220FFF7BDFC214614480068FEF7A0FE7E
:1013E000401E134908800295002168468180818152
:1013F000C18001A90F4800F03FF801220C48018884
:101400000C4800F036F8012211460A4800F027F88F
:101410001021684601700221417001218170FFF79F
:10142000EBFB01210348FFF7C1FF7FBD60000020F7
:10143000760000200004004030B502460020002362
:101440000024158A0D402B4695890D402C46002B13
:1014500003D0002C01D0012000E0002030BD002A84
:1014600003D083890B43838102E083898B4383818B
:10147000704701858282704700220288154B98428E
:1014800006D001239B07984202D0134B984203D108
:10149000124B1A404B881A43114B984203D0114B00
:1014A0001A400B891A4302804B68C3620B8803857C
:1014B000084B984208D00C4B984205D00B4B9842F1
:1014C00002D00B4B984201D18B7A03860123838291
:1014D00070470000002C0140000400408FFF000016
:1014E00000100040FFFC00000040014000440140AB
:1014F0000048014004480068002804D00248006801
:10150000401E0149086070470000002010B54021CE
:10151000094800F015F8012803D14021064800F0E1
:101520000DF82021044800F00BF8012803D12021F8
:10153000014800F003F810BD003801400162704717
:1015400002460020D3690B40002B01D0012000E0AF
:1015500000207047CA05D20D028570470FB410B540
:1015600003A9044B044A029800F018F810BC08BC08
:1015700004B01847ED160008A000002002E008C8DB
:10158000121F08C1002AFAD170477047002001E0FD
:1015900001C1121F002AFBD170470000FFB58DB0BA
:1015A0000446002506E025280AD0109A0F99904796
:1015B000641C6D1C20780028F5D1284611B0F0BDC0
:1015C00000270121484A009700E00743641C237864
:1015D0000846203B98401042F7D120782E2817D19A
:1015E000042007436078641C2A280CD10E98641CE0
:1015F00002C800910E900BE000990A225143303945
:101600004018641C00902078014630390929F3D92C
:1016100020780028D1D0642808D0692806D0752801
:101620001ED0109A0F9990476D1C5BE00A200E990E
:10163000019001C90E91002802DA40422D2102E0FA
:10164000390504D52B216A461172012103E0F907FF
:1016500004D02021F7E70BAE0B910DE00021FAE753
:101660000A200E99019001C90E91F7E70199FEF742
:1016700057FD3031761E31700028F7D103A8801B4A
:1016800020300190780701D5009801E001200090FA
:101690000199884201DD401A00E0002000270090F7
:1016A00006E002A8109AC05D0F9990476D1C7F1C40
:1016B0000B988742F5DB04E0109A30200F99904791
:1016C0006D1C0099481E00900029F5DC05E030787B
:1016D000109A761C0F9990476D1C0199481E019035
:1016E0000029F4DC641C65E70928010070B5044694
:1016F0000D46E1B20548FFF72DFF00BF402103482A
:10170000FFF71EFF0028F9D0204670BD00380140C9
:101710001CB55948FFF73CFB574948687D21C90073
:10172000FEF7FEFC0446601E5449884200D90CE0D6
:10173000601E534948610321081FFFF795FA0020F6
:101740004F4988610720086100BFFFF763F9FFF781
:1017500027FA4C494C48FFF737FEFEF781FE00217F
:101760000846FEF78FFD002823D1322200210846CB
:10177000FFF76CF9352201210020FFF767F93022CD
:1017800002210020FFF762F9302203210020FFF739
:101790005DF9452205210020FFF758F97222062144
:1017A0000020FFF753F9722207210020FFF74EF9BE
:1017B0001DE0322200210846FFF748F935220121B9
:1017C0000020FFF743F9302202210020FFF73EF905
:1017D000302203210020FFF739F94F220621002093
:1017E000FFF734F94B2207210020FFF72FF9FEF70E
:1017F000EDFCFF20F530FEF73DFF00210220FFF752
:10180000DFFC38E02148017821A0FFF7A7FE4B203C
:10181000C000FEF72FFF2048204900231A46009100
:10182000019019460120FFF75DFA1D480078401C21
:101830001B49087008460078632801DD0020087005
:101840000A2117480078FEF781FC30301349887070
:101850000A2113480078FEF779FC3031C8B20F49ED
:10186000C8700A480078002805D10120074908708F
:101870000948FEF783FEC5E764010020FFFFFF0073
:1018800000E000E0A8610000006CDC0274000020B1
:1018900025640D0A00000000180100200E00002041
:1018A0004E00002052565A5E62666A72767A7E82D6
:1018B000868A92969A0105363A3E42464AB6BABEA2
:1018C000C2C6CACE000000000000000000000000F8
:1018D0000000000000000010101010101010000098
:1018E0001818000000123624480000000000000014
:1018F00000000000000000242424FE484848FE4860
:101900004848000000001038545450301814145443
:101910005438101000000044A4A8A8A8541A2A2A79
:101920002A44000000000030484848506EA49488C3
:101930008976000000606020C00000000000000008
:101940000000000000020408081010101010100819
:1019500008040200004020101008080808080810B9
:1019600010204000000000001010D63838D61010AB
:10197000000000000000000010101010FE101010F9
:101980001000000000000000000000000000000047
:10199000606020C000000000000000007F00000028
:1019A0000000000000000000000000000000000037
:1019B000606000000000010202040408081010200A
:1019C000204040000000001824424242424242426D
:1019D00024180000000000107010101010101010DB
:1019E000107C00000000003C424242040408102029
:1019F000427E00000000003C424204180402024201
:101A000044380000000000040C14242444447E04E4
:101A1000041E00000000007E404040586402024264
:101A2000443800000000001C2440405864424242F8
:101A3000241800000000007E444408081010101014
:101A4000101000000000003C424242241824424290
:101A5000423C00000000001824424242261A0202C2
:101A600024380000000000000000181800000000EA
:101A70001818000000000000000000100000000026
:101A80000010102000000002040810204020100860
:101A900004020000000000000000FE000000FE0044
:101AA000000000000000004020100804020408109C
:101AB000204000000000003C42426202040808008E
:101AC0001818000000000038445AAAAAAAAAB44272
:101AD000443800000000001010182828243C44421C
:101AE00042E70000000000F8444444784442424287
:101AF00044F800000000003E424280808080804226
:101B000044380000000000F844424242424242424F
:101B100044F80000000000FC424848784848404231
:101B200042FC0000000000FC424848784848404021
:101B300040E000000000003C44448080808E8444EB
:101B400044380000000000E7424242427E424242E6
:101B500042E700000000007C101010101010101060
:101B6000107C00000000003E08080808080808086B
:101B7000080888F0000000EE44485070504848447F
:101B800044EE0000000000E0404040404040404043
:101B900042FE0000000000EE6C6C6C6C5454545417
:101BA00054D60000000000C7626252524A4A4A46B8
:101BB00046E20000000000384482828282828282F3
:101BC00044380000000000FC424242427C40404059
:101BD00040E0000000000038448282828282B2CA63
:101BE0004C380600000000FC4242427C4848444415
:101BF00042E300000000003E42424020180402423E
:101C0000427C0000000000FE921010101010101016
:101C100010380000000000E7424242424242424285
:101C2000423C0000000000E74242442424282818D7
:101C300010100000000000D692929292AAAA6C4462
:101C400044440000000000E742242418181824240B
:101C500042E70000000000EE444428281010101055
:101C6000103800000000007E840408081020204284
:101C700042FC0000001E1010101010101010101068
:101C800010101E0000004040202010101008080412
:101C90000404020200780808080808080808080870
:101CA00008087800001C220000000000000000006E
:101CB0000000000000000000000000000000000024
:101CC000000000FF006010000000000000000000A5
:101CD00000000000000000000000003C421E224204
:101CE000423F0000000000C0404040586442424271
:101CF00064580000000000000000001C224040402A
:101D0000221C0000000000060202021E2242424283
:101D1000261B0000000000000000003C427E404006
:101D2000423C00000000000F1110107E1010101037
:101D3000107C0000000000000000003E44443840D9
:101D40003C42423C000000C04040405C6242424293
:101D500042E700000000003030000070101010104A
:101D6000107C00000000000C0C00001C04040404A3
:101D700004044478000000C04040404E4850684889
:101D800044EE000000000070101010101010101031
:101D9000107C000000000000000000FE4949494995
:101DA00049ED000000000000000000DC62424242F9
:101DB00042E70000000000000000003C42424242B6
:101DC000423C000000000000000000D86442424293
:101DD000447840E0000000000000001E2242424221
:101DE000221E020700000000000000EE322020202A
:101DF00020F80000000000000000003E42403C02CD
:101E0000427C0000000000000010107C1010101038
:101E1000100C000000000000000000C642424242D8
:101E2000463B000000000000000000E74224242898
:101E30001010000000000000000000D79292AAAA33
:101E400044440000000000000000006E2418181830
:101E50002476000000000000000000E7422424284F
:101E6000181010E0000000000000007E4408101070
:101E7000227E000000030404040404080404040493
:101E800004040300080808080808080808080808E7
:101E9000080808080078080808080808080808085A
:101EA00008087800304C43000000000000000000EB
:101EB00000000000CAB100000800087C0844084582
:101EC000FE440844087C0844884448444844087C4C
:101ED00008440800280010BCE40013FC100440046F
:101EE00047C444444444444447C4444444444444AC
:101EF00047C44004401440080000C8D5001FF0103B
:101F00001010101010101010101FF01010101010E2
:101F1000101010101010101FF010100000D0C7008B
:101F200000001FF010101FF010101FF00100110032
:101F30001FF8210041001FF0010001007FFC00009C
:101F4000C6DA00227C7F44224422443E7C22442282
:101F5000443E44227C2244FF44048422844114826F
:101F6000080000B7D600000000400420042008103C
:101F7000080810047FFA020902080208040804088D
:101F80000808100860F0CAFD0000000000252025A8
:101F900020263E7FA40E643564442408247F181153
:101FA0001821181A14062479C2000000000000004D
:101FB0000000000000000000000000000000000021
:101FC0000000000000000000000000000000000011
:101FD0000000000000000000000000000000000001
:101FE00000000000000000000000000000000000F1
:10403000000000005440000800000020A400000020
:104040007C150008F8400008A4000020E4060000E9
:104050008C150008000000000000000000000000B7
:1040600000004142434445464748494A4B4C4D4E67
:104070004F505152535455565758595A61626364C0
:1040800065666768696A6B6C6D6E6F707172737468
:1040900075767778797A0000000000000000000053
:1040A0000000000000000000000000000000000010
:1040B00000000000006CDC020000000000000000B6
:1040C000010203040607080900000000E8030000DD
:1040D00000000000CDAB1032000000000401000021
:1040E00000000000000000010203040102030406B6
:0840F0000708090000000000B0
:04000005080000B53A
:00000001FF
